:100000000C9462000C948A000C948A000C948A0070
:100010000C948A000C948A000C948A000C948A0038
:100020000C948A000C948A000C948A000C948A0028
:100030000C948A000C948A000C948A000C948A0018
:100040000C9425040C948A000C948A000C948A0069
:100050000C948A000C948A000C948A000C948A00F8
:100060000C946F040C948A00000000002400270008
:100070002A0000000000250028002B0000000000DE
:1000800023002600290004040404040404040202DA
:100090000202020203030303030301020408102007
:1000A0004080010204081020010204081020000012
:1000B0000008000201000003040700000000000027
:1000C00000008A0511241FBECFEFD8E0DEBFCDBFF0
:1000D00011E0A0E0B1E0EAE6FFE002C005900D9279
:1000E000AA32B107D9F722E0AAE2B1E001C01D921D
:1000F000AB32B207E1F710E0C2E6D0E004C02197CE
:10010000FE010E94AD07C136D107C9F70E94020661
:100110000C94B3070C94000096E0899FD001112441
:10012000AC55BE4F90967C936E935F9791E09196FD
:100130009C939197E0911102F0911202909110021C
:10014000992339F0309751F0811108C08091C00196
:100150000994309719F05C968C91FACF0895CF925C
:10016000DF92EF92FF920F931F9396E0899FF00129
:100170001124EC55FE4F11A2278D30A121303105FD
:1001800051F178F02230310509F451C023303105A6
:1001900009F452C01F910F91FF90EF90DF90CF9024
:1001A00008956623B9F361E070E00E948C002FB7D8
:1001B000F8948091A0019091A101A091A201B09129
:1001C000A3012FBF8093FC019093FD01A093FE013A
:1001D000B093FF01DFCF9FB7F894C090A001D090FB
:1001E000A101E090A201F090A3019FBF0091FC014A
:1001F0001091FD012091FE013091FF01C01AD10A3A
:10020000E20AF30A00910E0210910F0230E020E0A2
:100210000C151D052E053F0550F462E070E01F919E
:100220000F91FF90EF90DF90CF900C948C006111B4
:10023000B1CF63E070E0F3CF70E060E0F0CFAF9259
:10024000BF92CF92DF92EF92FF920F931F93CF93C3
:10025000DF936C017B018B01040F151FEB015E0125
:10026000AE18BF08C017D10759F06991D601ED91BA
:10027000FC910190F081E02DC6010995892B79F759
:10028000C501DF91CF911F910F91FF90EF90DF900B
:10029000CF90BF90AF900895833081F028F48130E3
:1002A00099F08230A9F008958730A9F08830C9F01C
:1002B0008430B1F4809180008F7D03C080918000F4
:1002C0008F7780938000089584B58F7784BD0895DB
:1002D00084B58F7DFBCF8091B0008F778093B00085
:1002E00008958091B0008F7DF9CFCF93DF93282FB1
:1002F00030E0F901E255FF4F8491F901E656FF4FD6
:10030000D491F901EA57FF4FC491CC23A1F0811198
:100310000E944C01EC2FF0E0EE0FFF1FE458FF4F5E
:10032000A591B491EC91ED2381E090E009F480E097
:10033000DF91CF91089580E090E0FACF862F0C9462
:1003400075011F93CF93DF93282F30E0F901E25519
:10035000FF4F8491F901E656FF4FD491F901EA5716
:10036000FF4FC491CC23A9F0162F81110E944C019C
:10037000EC2FF0E0EE0FFF1FEE58FF4FA591B49168
:100380008FB7F894EC91111108C0D095DE23DC935F
:100390008FBFDF91CF911F910895DE2BF8CF862F6D
:1003A000642F0C94A101CF93DF9390E0FC01E656FB
:1003B000FF4F24918A579F4FFC0184918823C9F0F5
:1003C00090E0880F991FFC01E859FF4FA591B49167
:1003D000FC01EE58FF4FC591D49161110DC09FB73C
:1003E000F8948C91209582238C93888128232883EC
:1003F0009FBFDF91CF910895623051F49FB7F89479
:100400003C91822F809583238C93E8812E2BEFCF14
:100410008FB7F894EC912E2B2C938FBFEACF862FB9
:10042000642F0C94D301089520915101260F332796
:10043000331F21323105ECF420917501FC0190E06D
:1004400080E0243069F082E00895A091510121916B
:10045000AC014F5C5E4FA40FB52FB11D2C930196DC
:10046000861798F380915101680F6093510180E0E5
:10047000089581E0089508958FEF9FEF08958FEF1D
:100480009FEF089580912A0190E0919581959109BF
:100490000895CF93DF93CB01EA01642F0E941402E9
:1004A000CE01DF91CF910895CF93DF931F92CDB707
:1004B000DEB7698361E0CE0101960E94140281E0FB
:1004C00090E00F90DF91CF91089590E080E0089543
:1004D000CF93DF93EC0160E08E810E94A10161E087
:1004E0008E810E94A10160E08E810E94A1018BE8B3
:1004F00091E00197F1F7DF91CF910895CF92DF92CC
:10050000EF92FF920F931F93CF93DF936C017C01C7
:1005100087E0E80EF11CD0E0C0E0062F10E0B80143
:100520000C2E02C0759567950A94E2F76170F70189
:1005300081917F010E94A1012196C430D10579F7F4
:10054000C601DF91CF911F910F91FF90EF90DF9047
:10055000CF900C946802CF92DF92EF92FF920F93AC
:100560001F93CF93DF93EC01F62E642F8C810E94B2
:10057000A1018D818F3F19F060E00E94A1010F2D34
:1005800010E08F8584FF25C06E0187E0C80ED11C66
:10059000F12CE12CB8010E2C02C0759567950A94D8
:1005A000E2F76170F60181916F010E94A101FFEFF6
:1005B000EF1AFF0A88E0E816F10461F7CE01DF9137
:1005C000CF911F910F91FF90EF90DF90CF900C94FF
:1005D0006802B80184E0759567958A95E1F7CE01C8
:1005E0000E947E026F2DCE01DF91CF911F910F915E
:1005F000FF90EF90DF90CF900C947E0240E0682F48
:1006000083E192E00C94AB02CF93DF93823029F424
:100610009091220298609093220280932602109279
:10062000270280E48093280280E18093290280E5FC
:1006300080932A0261E0809117020E94D301809189
:1006400018028F3F19F061E00E94D30161E08091B0
:1006500019020E94D301C3E1D2E09E01235132402E
:100660008091220284FD0BC084E090E0219628173F
:10067000390744F461E08E810E94D301EECF88E017
:1006800090E0F4CF8BE39DE00197F1F760E080917B
:1006900017020E94A10160E0809119020E94A1014D
:1006A000809118028F3F19F060E00E94A1018091B3
:1006B000220284FD39C063E083E192E00E947E0261
:1006C000CBE4D6E4CE010197F1F763E083E192E059
:1006D0000E947E022197F1F763E083E192E00E949D
:1006E0007E0283E592E00197F1F762E083E192E018
:1006F0000E947E028091220280620E94FE0284E0BB
:10070000809323028CE00E94FE0281E00E94FE02A0
:100710008BE39FE10197F1F782E08093240286E06A
:10072000DF91CF910C94FE0280620E94FE028BE466
:1007300096E40197F1F78091220280620E94FE0206
:1007400083E592E00197F1F78091220280620E9496
:10075000FE02D0CF41E00E94AB0281E090E008951C
:100760001F93CF93DF9385ED8093BC0080912D0183
:1007700090912E01A0912F01B09130010796A11DFB
:10078000B11D23E0B695A795979587952A95D1F742
:100790002091BC0024FD03C01092750152C040910D
:1007A0002D0150912E0160912F0170913001452B48
:1007B000462B472B69F30097A105B10541F025E3CE
:1007C0002A95F1F700000197A109B109E1CF8091C5
:1007D0002C01C1E0C0932B01882399F1D091B8007E
:1007E0001091BA008091BC008A7B8093BC0060E0CD
:1007F00082E10E94A10160E083E10E94A1011092C8
:100800007501C09377011092760161E082E10E9448
:10081000A10161E083E10E94A1018091B9008E7F76
:100820008093B9008091B9008D7F8093B90088E4EE
:100830008093B80085E48093BC001093BA00D093F5
:10084000B800DF91CF911F9108951F920F920FB6BC
:100850000F9211242F933F938F939F93AF93BF9346
:100860008091A0019091A101A091A201B091A3015A
:1008700030919F0123E0230F2D3758F50196A11DDC
:10088000B11D20939F018093A0019093A101A0939B
:10089000A201B093A30180919B0190919C01A09132
:1008A0009D01B0919E010196A11DB11D80939B01F8
:1008B00090939C01A0939D01B0939E01BF91AF9135
:1008C0009F918F913F912F910F900FBE0F901F908E
:1008D000189526E8230F0296A11DB11DD2CF1F92B5
:1008E0000F920FB60F9211242F933F934F935F9364
:1008F0006F937F938F939F93AF93BF93EF93FF93E8
:100900008091B900887F803609F44AC0F0F58832BA
:1009100009F4A5C018F5803109F499C0B8F488230A
:1009200009F4F5C0883009F492C0FF91EF91BF91AE
:10093000AF919F918F917F916F915F914F913F9177
:100940002F910F900FBE0F901F901895883109F4CA
:1009500086C0803251F78093740114C0803409F44A
:100960009BC040F48033B9F38833F9F68093740167
:1009700085ECAEC0803509F483C0883509F494C095
:10098000883499F60E94B003D0CF883909F48AC020
:1009900038F5883729F050F4883611F0803729F679
:1009A00083E0809375011092730155C0883809F473
:1009B00079C0803919F0803809F0B7CF8091730180
:1009C000803208F06FC0E091730181E08E0F809358
:1009D00073018091BB00F0E0ED5AFE4F80833BC075
:1009E000803B39F0D0F4803A09F477C0883A09F0B6
:1009F0009CCF84E0809375011092520110925101B6
:100A0000F0E0E0E009958091510181110FC081E093
:100A1000809351011092310109C0803C09F4A8CFA4
:100A2000883C09F4A5CF883B09F07FCFE0915201C3
:100A300081E08E0F80935201F0E0EF5CFE4F8081E9
:100A40008093BB00909152018091510129C0809107
:100A50009A018093BB0085EC8093BC0066CF909197
:100A6000990180919801981758F5E091990181E0DA
:100A70008E0F80939901F0E0E858FE4F8081E9CF16
:100A8000E091990181E08E0F809399018091BB00E4
:100A9000F0E0E858FE4F8083909199018091980191
:100AA0009817C8F285E8D8CFE091990181E08E0FC0
:100AB000809399018091BB00F0E0E858FE4F80835D
:100AC0008091770181115ECF81E08093760184EA85
:100AD0008093BC001092750128CF85EC8093BC00F8
:100AE0001092750180917301803230F4E0917301AE
:100AF000F0E0ED5AFE4F10826091730170E083E5E3
:100B000091E0F0E0E0E00995109273010ECF1092B1
:100B1000740138CF109216021092150281E291E012
:100B200090931402809313028CE0809317028FEF4E
:100B3000809318028BE08093190285E080931A025B
:100B400084E080931B0283E080931C0282E0809308
:100B50001D0210921E0210921F021092200210928B
:100B600021021092220281E00E9404031092A60149
:100B70001092AA011092A9011092AB0187E191E0B5
:100B80009093A5018093A401E0ECF1E0108214821F
:100B900013821582369681E0EC3FF807B9F783E0BF
:100BA00091E0909307028093060280E091E0909399
:100BB00009028093080284E080930A0283E0809314
:100BC0000B0287E091E090930502809304028AE093
:100BD00090E090930D0280930C0284EF91E090934B
:100BE0000F0280930E0210921202109211021092C4
:100BF000000210920102109202021092030210925F
:100C000010020895789484B5826084BD84B58160B3
:100C100084BD85B5826085BD85B5816085BD8091C7
:100C20006E00816080936E0010928100809181003F
:100C30008260809381008091810081608093810037
:100C4000809180008160809380008091B1008460F9
:100C50008093B1008091B00081608093B00080915A
:100C60007A00846080937A0080917A008260809319
:100C70007A0080917A00816080937A0080917A0076
:100C8000806880937A001092C10082E00E94040381
:100C9000412C512C320143944BE3242E4FE1342E4E
:100CA00050E0C52E50E0D52E51E0509310028FB782
:100CB000F8944091A0015091A1016091A20170911E
:100CC000A3018FBF8091000290910102A0910202C6
:100CD000B0910302481B590B6A0B7B0B80910C02ED
:100CE00090910D02B0E0A0E084179507A607B70722
:100CF00008F014C1C0E080910A02C81760F4E091C6
:100D00000602F0910702EC0FF11D62E080810E9463
:100D1000D301CF5FF0CF912C80910B02981608F091
:100D20005FC0092D10E0E0910802F0910902E00F88
:100D3000F11F61E080810E94D301E0910802F091EF
:100D40000902E00FF11F60E080810E94A101D30140
:100D5000C201092C04C0880F991FAA1FBB1F0A9447
:100D6000D2F75C017C01E094F094812C80910A021E
:100D70008816F8F4C82DD0E0E0910602F091070241
:100D8000EC0FFD1F80810E9475012496CC0FDD1FA2
:100D9000CC55DE4F892B41F4888199818A299B2982
:100DA000998388838394E2CF888199818E219F21C2
:100DB000F7CFE0910802F0910902E00FF11F61E026
:100DC00080810E94A1018091080290910902080F80
:100DD000191F60E0F80180810E94D30193949CCF99
:100DE000C4EAD1E0FE01878D90A1892B31F4148EE5
:100DF0008FEF9FEF968F858F11A2369691E0E03EA0
:100E0000F90789F710E080910A02181708F053C01B
:100E100000E0E12EF12CEE0CFF1CF701E455FE4F33
:100E20007F0120910B02021708F043C0F701608197
:100E30007181002E02C0769567950A94E2F7129FA1
:100E400090011124200F311DE4EAF1E080E0458D8E
:100E5000568D2417350709F47EC08F5F36968A3089
:100E6000B1F760FF24C0E4EAF1E090E080E0448D57
:100E7000411118C0E0910402F0910502E20FF31F46
:100E8000408156E0589FF001599FF00D1124EC5518
:100E9000FE4F448F368F258F10A2178E61E00E947F
:100EA000AF0005C0019636968A30910501F70F5FB5
:100EB000B8CF1F5FA8CF80E099A19111892F269606
:100EC00091E0C03ED907C1F79FB7F8944091A001C7
:100ED0005091A1016091A2017091A3019FBF409325
:100EE0000002509301026093020270930302882370
:100EF000A9F08091C501882389F08091C301909168
:100F0000C401019759F4C091C001C1110AC0C114B4
:100F1000D10409F4C9CE0E940000C6CE109210027E
:100F2000F6CF81E00E94FE02C1010197F1F7E1E0F6
:100F3000809126028111E0E0E195F0E0ED5EFD4F49
:100F4000848980680E94FE0241E06C2F83E192E078
:100F50000E94AB02DCCF6170A2CFEE0FFF1F0590A5
:0A0F6000F491E02D0994F894FFCFFE
:100F6A000607080E0F101231323334353637383946
:100F7A002A3023000000000F02CF019E010000006A
:0A0F8A0000AA031F01650213020014
:00000001FF
