:020000040000FA
:100000000C9462000C948A000C948A000C948A0070
:100010000C948A000C948A000C948A000C948A0038
:100020000C948A000C948A000C948A000C948A0028
:100030000C948A000C948A000C948A000C948A0018
:100040000C94B5040C948A000C948A000C948A00D9
:100050000C948A000C948A000C948A000C948A00F8
:100060000C94FF040C948A00000000002400270078
:100070002A0000000000250028002B0000000000DE
:1000800023002600290004040404040404040202DA
:100090000202020203030303030301020408102007
:1000A0004080010204081020010204081020000012
:1000B0000008000201000003040700000000000027
:1000C00000001A0611241FBECFEFD8E0DEBFCDBF5F
:1000D00011E0A0E0B1E0E2E3F1E102C005900D9291
:1000E000A237B107D9F722E0A2E7B1E001C01D9223
:1000F000A837B207E1F710E0C2E6D0E004C02197CC
:10010000FE010E949108C136D107C9F70E949206EC
:100110000C9497080C94000096E0899FD00111245C
:10012000AF50BE4F90967C936E935F9791E09196FF
:100130009C939197E0915E02F0915F0290915D0235
:10014000992339F0309751F0811108C080910D0248
:100150000994309719F05C968C91FACF0895CF925C
:10016000DF92EF92FF920F931F9396E0899FF00129
:100170001124EF50FE4F11A2278D30A121303105FF
:1001800051F178F02230310509F451C023303105A6
:1001900009F452C01F910F91FF90EF90DF90CF9024
:1001A00008956623B9F361E070E00E948C002FB7D8
:1001B000F8948091ED019091EE01A091EF01B09142
:1001C000F0012FBF8093490290934A02A0934B0203
:1001D000B0934C02DFCF9FB7F894C090ED01D09060
:1001E000EE01E090EF01F090F0019FBF0091490215
:1001F00010914A0220914B0230914C02C01AD10A50
:10020000E20AF30A00915B0210915C0230E020E008
:100210000C151D052E053F0550F462E070E01F919E
:100220000F91FF90EF90DF90CF900C948C006111B4
:10023000B1CF63E070E0F3CF70E060E0F0CFAF9259
:10024000BF92CF92DF92EF92FF920F931F93CF93C3
:10025000DF936C017B018B01040F151FEB015E0125
:10026000AE18BF08C017D10759F06991D601ED91BA
:10027000FC910190F081E02DC6010995892B79F759
:10028000C501DF91CF911F910F91FF90EF90DF900B
:10029000CF90BF90AF900895833081F028F48130E3
:1002A00099F08230A9F008958730A9F08830C9F01C
:1002B0008430B1F4809180008F7D03C080918000F4
:1002C0008F7780938000089584B58F7784BD0895DB
:1002D00084B58F7DFBCF8091B0008F778093B00085
:1002E00008958091B0008F7DF9CFCF93DF93282FB1
:1002F00030E0F901E255FF4F8491F901E656FF4FD6
:10030000D491F901EA57FF4FC491CC23A1F0811198
:100310000E944C01EC2FF0E0EE0FFF1FE458FF4F5E
:10032000A591B491EC91ED2381E090E009F480E097
:10033000DF91CF91089580E090E0FACF862F0C9462
:1003400075011F93CF93DF93282F30E0F901E25519
:10035000FF4F8491F901E656FF4FD491F901EA5716
:10036000FF4FC491CC23A9F0162F81110E944C019C
:10037000EC2FF0E0EE0FFF1FEE58FF4FA591B49168
:100380008FB7F894EC91111108C0D095DE23DC935F
:100390008FBFDF91CF911F910895DE2BF8CF862F6D
:1003A000642F0C94A101CF93DF9390E0FC01E656FB
:1003B000FF4F24918A579F4FFC0184918823C9F0F5
:1003C00090E0880F991FFC01E859FF4FA591B49167
:1003D000FC01EE58FF4FC591D49161110DC09FB73C
:1003E000F8948C91209582238C93888128232883EC
:1003F0009FBFDF91CF910895623051F49FB7F89479
:100400003C91822F809583238C93E8812E2BEFCF14
:100410008FB7F894EC912E2B2C938FBFEACF862FB9
:10042000642F0C94D3013FB7F8948091E40190912C
:10043000E501A091E601B091E70126B5A89B05C0B2
:100440002F3F19F00196A11DB11D3FBFBA2FA92F53
:10045000982F8827BC01CD01620F711D811D911D50
:1004600042E0660F771F881F991F4A95D1F70895BC
:100470008F929F92AF92BF92CF92DF92EF92FF92B4
:100480004B015C010E9413026B017C010E9413026C
:100490006C197D098E099F09683E7340810591059D
:1004A000A8F321E0821A9108A108B10888EEC80ECD
:1004B00083E0D81EE11CF11C81149104A104B10455
:1004C00029F7FF90EF90DF90CF90BF90AF909F9073
:1004D0008F900895089520919901260F3327331F97
:1004E00021323105ECF42091BD01FC0190E080E067
:1004F000243069F082E00895A09199012191AC0126
:1005000047585E4FA40FB52FB11D2C930196861747
:1005100098F380919901680F6093990180E00895A4
:1005200081E0089508958FEF9FEF08958FEF9FEF7B
:1005300008958091720190E09195819591090895B7
:10054000CF93DF93CB01EA01642F0E946B02CE01AF
:10055000DF91CF910895CF93DF931F92CDB7DEB790
:10056000698361E0CE0101960E946B0281E090E018
:100570000F90DF91CF91089590E080E00895FC0105
:1005800001900020E9F73197AF01481B590BBC01DE
:1005900080E692E00C941F01CF93DF93EC0160E0C2
:1005A0008E810E94A10161E08E810E94A10160E024
:1005B0008E810E94A1018BE891E00197F1F7DF9114
:1005C000CF910895CF92DF92EF92FF920F931F93F6
:1005D000CF93DF936C017C0187E0E80EF11CD0E043
:1005E000C0E0062F10E0B8010C2E02C0759567958B
:1005F0000A94E2F76170F70181917F010E94A101E5
:100600002196C430D10579F7C601DF91CF911F91B2
:100610000F91FF90EF90DF90CF900C94CC02CF928F
:10062000DF92EF92FF920F931F93CF93DF93EC0132
:10063000F62E642F8C810E94A1018D818F3F19F0CD
:1006400060E00E94A1010F2D10E08F8584FF25C07E
:100650006E0187E0C80ED11CF12CE12CB8010E2CE4
:1006600002C0759567950A94E2F76170F601819171
:100670006F010E94A101FFEFEF1AFF0A88E0E81660
:10068000F10461F7CE01DF91CF911F910F91FF909F
:10069000EF90DF90CF900C94CC02B80184E0759578
:1006A00067958A95E1F7CE010E94E2026F2DCE0197
:1006B000DF91CF911F910F91FF90EF90DF90CF903E
:1006C0000C94E20240E0682F80E692E00C940F0365
:1006D000CF93DF93823029F490916F0298609093CA
:1006E0006F02809373021092740280E4809375020B
:1006F00080E18093760280E58093770261E08091CB
:1007000064020E94D301809165028F3F19F061E07D
:100710000E94D30161E0809166020E94D301C0E68D
:10072000D2E09E012056324080916F0284FD0BC0C2
:1007300084E090E021962817390744F461E08E8127
:100740000E94D301EECF88E090E0F4CF8BE39DE0F0
:100750000197F1F760E0809164020E94A10160E0DE
:10076000809166020E94A101809165028F3F19F07D
:1007700060E00E94A10180916F0284FD39C063E0B6
:1007800080E692E00E94E202CBE4D6E4CE0101973B
:10079000F1F763E080E692E00E94E2022197F1F730
:1007A00063E080E692E00E94E20283E592E0019736
:1007B000F1F762E080E692E00E94E20280916F022F
:1007C00080620E94620384E0809370028CE00E9449
:1007D000620381E00E9462038BE39FE10197F1F7DE
:1007E00082E08093710286E0DF91CF910C946203E6
:1007F00080620E9462038BE496E40197F1F7809196
:100800006F0280620E94620383E592E00197F1F734
:1008100080916F0280620E946203D0CFE0917302E8
:10082000E23040F4E150F0E0E05AFD4F8489806806
:100830000C946203E1E0F7CF0E940E0489E291E09C
:100840000E94BF0260ED77E080E090E00E943802F5
:100850000E940E0485E391E00E94BF020E940E04F4
:100860001092EC0161E089E00E94A10160E08AE061
:100870000C94A10141E00E940F0381E090E00895F3
:100880001F93CF93DF9385ED8093BC00809175011A
:1008900090917601A0917701B09178010796A11D02
:1008A000B11D23E0B695A795979587952A95D1F721
:1008B0002091BC0024FD03C01092BD0152C04091A4
:1008C0007501509176016091770170917801452B07
:1008D000462B472B69F30097A105B10541F025E3AD
:1008E0002A95F1F700000197A109B109E1CF8091A4
:1008F0007401C1E0C0937301882399F1D091B800CD
:100900001091BA008091BC008A7B8093BC0060E0AB
:1009100082E10E94A10160E083E10E94A1011092A6
:10092000BD01C093BF011092BE0161E082E10E944F
:10093000A10161E083E10E94A1018091B9008E7F55
:100940008093B9008091B9008D7F8093B90088E4CD
:100950008093B80085E48093BC001093BA00D093D4
:10096000B800DF91CF911F9108951F920F920FB69B
:100970000F9211242F933F938F939F93AF93BF9325
:100980008091ED019091EE01A091EF01B091F00105
:100990003091E30123E0230F2D3758F50196A11D77
:1009A000B11D2093E3018093ED019093EE01A0939C
:1009B000EF01B093F0018091E4019091E501A091E5
:1009C000E601B091E7010196A11DB11D8093E401FC
:1009D0009093E501A093E601B093E701BF91AF9139
:1009E0009F918F913F912F910F900FBE0F901F906D
:1009F000189526E8230F0296A11DB11DD2CF1F9294
:100A00000F920FB60F9211242F933F934F935F9342
:100A10006F937F938F939F93AF93BF93EF93FF93C6
:100A20008091B900887F803609F44AC0F0F5883299
:100A300009F4A5C018F5803109F499C0B8F48823E9
:100A400009F4F5C0883009F492C0FF91EF91BF918D
:100A5000AF919F918F917F916F915F914F913F9156
:100A60002F910F900FBE0F901F901895883109F4A9
:100A700086C0803251F78093BC0114C0803409F4E1
:100A80009BC040F48033B9F38833F9F68093BC01FE
:100A900085ECAEC0803509F483C0883509F494C074
:100AA000883499F60E944004D0CF883909F48AC06E
:100AB00038F5883729F050F4883611F0803729F658
:100AC00083E08093BD011092BB0155C0883809F4C2
:100AD00079C0803919F0803809F0B7CF8091BB0117
:100AE000803208F06FC0E091BB0181E08E0F8093EF
:100AF000BB018091BB00F0E0E556FE4F80833BC018
:100B0000803B39F0D0F4803A09F477C0883A09F094
:100B10009CCF84E08093BD0110929A0110929901BC
:100B2000F0E0E0E009958091990181110FC081E02A
:100B3000809399011092790109C0803C09F4A8CFF3
:100B4000883C09F4A5CF883B09F07FCFE0919A015A
:100B500081E08E0F80939A01F0E0E758FE4F80818C
:100B60008093BB0090919A018091990129C0809156
:100B7000E2018093BB0085EC8093BC0066CF90912E
:100B8000E1018091E001981758F5E091E10181E0E1
:100B90008E0F8093E101F0E0E054FE4F8081E9CFB9
:100BA000E091E10181E08E0F8093E1018091BB0033
:100BB000F0E0E054FE4F80839091E1018091E001EC
:100BC0009817C8F285E8D8CFE091E10181E08E0F57
:100BD0008093E1018091BB00F0E0E054FE4F808300
:100BE0008091BF0181115ECF81E08093BE0184EAD4
:100BF0008093BC001092BD0128CF85EC8093BC008F
:100C00001092BD018091BB01803230F4E091BB01B4
:100C1000F0E0E556FE4F10826091BB0170E08BE979
:100C200091E0F0E0E0E009951092BB010ECF109248
:100C3000BC0138CF109263021092620281E291E00F
:100C400090936102809360028CE0809364028FEF46
:100C5000809365028BE08093660285E08093670253
:100C600084E08093680283E08093690282E080934D
:100C70006A0210926B0210926C0210926D02109236
:100C80006E0210926F0281E00E9468031092F301DD
:100C90001092F7011092F6011092F80187E191E0AD
:100CA0009093F2018093F101EDE0F2E01082148262
:100CB00013821582369682E0E934F807B9F783E0AB
:100CC00091E0909354028093530280E091E09093DE
:100CD00056028093550284E08093570283E080930C
:100CE000580287E091E090935202809351028AE08B
:100CF00090E090935A028093590284EF91E0909390
:100D00005C0280935B0210925F0210925E0210926E
:100D10004D0210924E0210924F0210925002109209
:100D20005D020895789484B5826084BD84B5816045
:100D300084BD85B5826085BD85B5816085BD8091A6
:100D40006E00816080936E0010928100809181001E
:100D50008260809381008091810081608093810016
:100D6000809180008160809380008091B1008460D8
:100D70008093B1008091B00081608093B000809139
:100D80007A00846080937A0080917A0082608093F8
:100D90007A0080917A00816080937A0080917A0055
:100DA000806880937A001092C10061E089E00E941F
:100DB000D30161E08AE00E94D30182E00E946803CF
:100DC00080917102982F91609093710285600E94CA
:100DD00062038FE391E00E94BF020E940E0461E073
:100DE00089E00E94A10160E08AE00E94A101412CFB
:100DF000512C3201439488248A94982C50E0C52EBB
:100E000050E0D52E51E050935D028FB7F894409199
:100E1000ED015091EE016091EF017091F0018FBFF3
:100E200080914D0290914E02A0914F02B0915002DC
:100E3000481B590B6A0B7B0B8091590290915A0207
:100E4000B0E0A0E084179507A607B70708F014C123
:100E5000C0E080915702C81760F4E0915302F0910E
:100E60005402EC0FF11D62E080810E94D301CF5F3C
:100E7000F0CF312C80915802381608F05FC0032D56
:100E800010E0E0915502F0915602E00FF11F61E091
:100E900080810E94D301E0915502F0915602E00F4B
:100EA000F11F60E080810E94A101D301C201032CE7
:100EB00004C0880F991FAA1FBB1F0A94D2F75C01B8
:100EC0007C01E094F094212C809157022816F8F4CC
:100ED000C22DD0E0E0915302F0915402EC0FFD1FBF
:100EE00080810E9475012496CC0FDD1FCF50DE4F0C
:100EF000892B41F4888199818A299B299983888348
:100F00002394E2CF888199818E219F21F7CFE091B0
:100F10005502F0915602E00FF11F61E080810E94BE
:100F2000A1018091550290915602080F191F60E0AF
:100F3000F80180810E94D30133949CCF01EF11E02E
:100F4000E8018F8D98A1892B21F41C8E9E8E8D8EA9
:100F500019A226968DE292E08C179D0791F7B12C8D
:100F600080915702B81608F053C0A12CEB2CF12C3D
:100F7000EE0CFF1CF701E750FE4F7F012091580255
:100F8000A21608F043C0F701608171810A2C02C0EB
:100F9000769567950A94E2F7B29E900111242A0D86
:100FA000311DE1EFF1E080E0458D568D24173507C6
:100FB00009F4B5C08F5F36968A30B1F760FF24C060
:100FC000E1EFF1E090E080E0448D411118C0E09144
:100FD0005102F0915202E20FF31F408156E0589FF8
:100FE000F001599FF00D1124EF50FE4F448F368FC2
:100FF000258F10A2178E61E00E94AF0005C00196F8
:1010000036968A30910501F7A394B8CFB394A8CF50
:1010100080E0F80191A19111892F0A5F1F4F0C17F1
:101020001D07B9F79FB7F8944091ED015091EE017B
:101030006091EF017091F0019FBF40934D0250937A
:101040004E0260934F02709350028823A9F0809162
:101050001202882389F08091100290911102019769
:1010600059F4C0910D02C1110AC0C114D10409F490
:10107000C9CE0E940000C6CE10925D02F6CFD0917C
:10108000EC01D430ACF4CA32A9F0C332C1F041E073
:101090006C2F80E692E00E940F03ED2F0D2E000CC6
:1010A000FF0BE851FE4FC083DF5FD093EC01DDCF33
:1010B000CA3219F40E941C04D8CFC332B1F6809111
:1010C000E801803309F58091E9018033E9F48091EA
:1010D000EA018033C9F48091EB018533A9F460E023
:1010E00089E00E94A10161E08AE00E94A1010E94C2
:1010F0000E0486E591E00E94BF0268E57BE180E096
:1011000090E00E943802D6CF0E940E048EE591E056
:101110000E94BF0260ED77E080E090E0F2CF617066
:101120006BCFEE0FFF1F0590F491E02D0994F8941A
:10113000FFCF0607080E0F10123132333435363721
:1011400038392A3023000000000F02CF019E010031
:101150000000003A041F01BC026A02446F6F722053
:101160004C6F636B6564002020202020202020200D
:101170000070617373776F726420626173656420BD
:101180006173736573733A004F70656E696E6700C3
:10119000494E434F52524543542050415353574FA9
:0411A00052440000B5
:107E0000112484B714BE81FFF0D085E080938100F7
:107E100082E08093C00088E18093C10086E0809377
:107E2000C20080E18093C4008EE0C9D0259A86E02C
:107E300020E33CEF91E0309385002093840096BBD3
:107E4000B09BFECF1D9AA8958150A9F7CC24DD24C4
:107E500088248394B5E0AB2EA1E19A2EF3E0BF2EE7
:107E6000A2D0813461F49FD0082FAFD0023811F036
:107E7000013811F484E001C083E08DD089C08234E0
:107E800011F484E103C0853419F485E0A6D080C0E4
:107E9000853579F488D0E82EFF2485D0082F10E0AE
:107EA000102F00270E291F29000F111F8ED06801E7
:107EB0006FC0863521F484E090D080E0DECF843638
:107EC00009F040C070D06FD0082F6DD080E0C81688
:107ED00080E7D80618F4F601B7BEE895C0E0D1E017
:107EE00062D089930C17E1F7F0E0CF16F0E7DF06D8
:107EF00018F0F601B7BEE89568D007B600FCFDCFD4
:107F0000A601A0E0B1E02C9130E011968C91119780
:107F100090E0982F8827822B932B1296FA010C0160
:107F200087BEE89511244E5F5F4FF1E0A038BF0790
:107F300051F7F601A7BEE89507B600FCFDCF97BE46
:107F4000E89526C08437B1F42ED02DD0F82E2BD052
:107F50003CD0F601EF2C8F010F5F1F4F84911BD097
:107F6000EA94F801C1F70894C11CD11CFA94CF0C13
:107F7000D11C0EC0853739F428D08EE10CD085E9AC
:107F80000AD08FE07ACF813511F488E018D01DD067
:107F900080E101D065CF982F8091C00085FFFCCF94
:107FA0009093C60008958091C00087FFFCCF809118
:107FB000C00084FD01C0A8958091C6000895E0E648
:107FC000F0E098E1908380830895EDDF803219F02E
:107FD00088E0F5DFFFCF84E1DECF1F93182FE3DFCA
:107FE0001150E9F7F2DF1F91089580E0E8DFEE27F6
:047FF000FF270994CA
:027FFE00040479
:00000001FF
