:100000000C9464000C948C000C948C000C948C0068
:100010000C948C000C948C000C948C000C947E0539
:100020000C948C000C948C000C948C000C94240682
:100030000C948C000C948C000C948C000C948C0010
:100040000C94DA050C948C000C948C000C948C00AD
:100050000C948C000C948C000C948C000C948C00F0
:100060000C948C000C948C000000000024002700ED
:100070002A000000000023002600290000000008DC
:10008000000201000003040700000000000000005F
:10009000010204081020408001020408102001021F
:1000A0000408102000000000250028002B00040494
:1000B0000404040404040202020202020303030310
:1000C00003030200600B0A0C11241FBECFEFD8E01F
:1000D000DEBFCDBF11E0A0E0B1E0E2E7FDE102C08C
:1000E00005900D92A03AB107D9F722E0A0EAB1E05D
:1000F00001C01D92AB37B207E1F710E0C3E6D0E0D4
:1001000004C02197FE010E94B40CC236D107C9F782
:100110000E94E0060C94AC0E0C9400008F929F920B
:10012000AF92BF92FF920F931F93CF93DF93F09004
:100130005C022BE02F1508F44CC020915E0208E50C
:1001400012E0021B110927FD1395000F111F000F6C
:10015000111F20915D02C8E8D0E0C21BD10927FD24
:10016000D395CC0FDD1FCC0FDD1F4E010D2E000CE3
:10017000AA08BB089801012E000C440B550B281946
:1001800039094A095B09DC010E94380C24EB30E094
:1001900040E050E00E940E0C820E931EA41EB51E7D
:1001A0008C169D062CF0E801801691060CF4E401F3
:1001B0002297CC0FDD1F2FB7F8948F2D90E0FC0114
:1001C000EE0FFF1FE80FF91FE85CFD4FD283C183DC
:1001D0002FBFDF91CF911F910F91FF90BF90AF90F4
:1001E0009F908F90089596E0899FD0011124A75386
:1001F000BE4F90967C936E935F9791E091969C93FF
:100200009197E0913602F09137029091350299234F
:1002100039F0309751F0811108C08091E5010994BF
:10022000309719F05C968C91FACF0895CF92DF92B7
:10023000EF92FF920F931F9396E0899FF001112494
:10024000E753FE4F11A2278D30A12130310551F126
:1002500078F02230310509F451C02330310509F41A
:1002600052C01F910F91FF90EF90DF90CF900895B3
:100270006623B9F361E070E00E94F3002FB7F894B1
:100280008091C5019091C601A091C701B091C801AC
:100290002FBF8093210290932202A0932302B09358
:1002A0002402DFCF9FB7F894C090C501D090C6015B
:1002B000E090C701F090C8019FBF0091210210910A
:1002C00022022091230230912402C01AD10AE20AAC
:1002D000F30A009133021091340230E020E00C1553
:1002E0001D052E053F0550F462E070E01F910F914F
:1002F000FF90EF90DF90CF900C94F3006111B1CF9D
:1003000063E070E0F3CF70E060E0F0CF0895AF926B
:10031000BF92CF92DF92EF92FF920F931F93CF93F2
:10032000DF936C017B018B01040F151FEB015E0154
:10033000AE18BF08C017D10759F06991D601ED91E9
:10034000FC910190F081E02DC6010995892B79F788
:10035000C501DF91CF911F910F91FF90EF90DF903A
:10036000CF90BF90AF900895833081F028F4813012
:1003700099F08230A9F008958730A9F08830C9F04B
:100380008430B1F4809180008F7D03C08091800023
:100390008F7780938000089584B58F7784BD08950A
:1003A00084B58F7DFBCF8091B0008F778093B000B4
:1003B00008958091B0008F7DF9CFCF93DF93282FE0
:1003C00030E0F901E458FF4F8491F901E057FF4F05
:1003D000D491F901E255FF4FC491CC23A1F08111D2
:1003E0000E94B401EC2FF0E0EE0FFF1FEE58FF4F1C
:1003F000A591B491EC91ED2381E090E009F480E0C7
:10040000DF91CF91089580E090E0FACF862F0C9491
:10041000DD011F93CF93DF93282F30E0F901E458DB
:10042000FF4F8491F901E057FF4FD491F901E25554
:10043000FF4FC491CC23A9F0162F81110E94B40163
:10044000EC2FF0E0EE0FFF1FEC55FF4FA591B4919C
:100450008FB7F894EC91111108C0D095DE23DC938E
:100460008FBFDF91CF911F910895DE2BF8CF862F9C
:10047000642F0C94090290910C0189130BC0E2ECDB
:10048000F0E0E4919FEF90930C01E13049F028F007
:10049000E23061F060E00C94090210926E00FACF35
:1004A00090916F009D7F90936F00F4CF90917000BA
:1004B0009D7F9093700091E09093B0009091B10077
:1004C000987F94609093B1001092B300E3CFCF93E4
:1004D000DF9390E0FC01E057FF4F249182559F4F3E
:1004E000FC0184918823C9F090E0880F991FFC01DA
:1004F000E859FF4FA591B491FC01EC55FF4FC59110
:10050000D49161110DC09FB7F8948C9120958223EE
:100510008C938881282328839FBFDF91CF910895F2
:10052000623051F49FB7F8943C91822F80958323D9
:100530008C93E8812E2BEFCF8FB7F894EC912E2B74
:100540002C938FBFEACF862F642F0C9467023FB79E
:10055000F8948091A3019091A401A091A501B0917C
:10056000A60126B5A89B05C02F3F19F00196A11D35
:10057000B11D3FBFBA2FA92F982F8827BC01CD01ED
:10058000620F711D811D911D42E0660F771F881F4C
:10059000991F4A95D1F708958F929F92AF92BF927B
:1005A000CF92DF92EF92FF924B015C010E94A70273
:1005B0006B017C010E94A7026C197D098E099F09BD
:1005C000683E734081059105A8F321E0821A9108E5
:1005D000A108B10888EEC80E83E0D81EE11CF11C0A
:1005E00081149104A104B10429F7FF90EF90DF90EA
:1005F000CF90BF90AF909F908F90089590E080E053
:100600000895892B79F41092800082E08093810014
:100610001092850010928400B19A80916F008260E0
:1006200080936F000895CF9390915C029C3008F006
:1006300044C0C82F61E00E94670280915C02282FAD
:1006400030E0F901EE0FFF1FE20FF31FE85CFD4FF2
:10065000CF739081907CC92BC08310925D02109261
:100660005E022CE0622F0E94A80C829FB001112430
:1006700030E020E0AB01420F531FFA01EE0FFF1FE5
:10068000E40FF51FE85CFD4F908196FD08C02F5FD9
:100690003F4F2C30310571F790E00E940103E0914B
:1006A0005C028E2F90E0FC01EE0FFF1FE80FF91F98
:1006B000E85CFD4F80818064808380915C02CF91F3
:1006C000089561E08DE00E94090260E08AE00E94E6
:1006D000090268EE73E080E090E00E94CC02809115
:1006E0005C028C3008F043C061E083E00E94670246
:1006F00080915C02282F30E0F901EE0FFF1FE20F1E
:10070000F31FE85CFD4F9081907C93609083109282
:100710005D0210925E022CE0622F0E94A80C829F64
:10072000B001112430E020E0AB01420F531FFA0169
:10073000EE0FFF1FE40FF51FE85CFD4F908196FD63
:1007400008C02F5F3F4F2C30310571F790E00E94B9
:100750000103E0915C028E2F90E0FC01EE0FFF1F81
:10076000E80FF91FE85CFD4F8081806480838AE098
:1007700090E00E948E0068EE73E080E090E00E94BE
:10078000CC02E0915C028E2F90E0FC01EE0FFF1F87
:10079000E80FF91FE85CFD4F80818F7B808308950F
:1007A000FC0101900020E9F73197AF01481B590B7C
:1007B000BC018FE592E00C948701CF93DF93EC01AD
:1007C00060E08E810E94090261E08E810E94090230
:1007D00060E08E810E9409028BE891E00197F1F7B9
:1007E000DF91CF910895CF92DF92EF92FF920F9316
:1007F0001F93CF93DF936C017C0187E0E80EF11C1F
:10080000D0E0C0E0062F10E0B8010C2E02C07595B4
:1008100067950A94E2F76170F70181917F010E9468
:1008200009022196C430D10579F7C601DF91CF9135
:100830001F910F91FF90EF90DF90CF900C94DD030C
:10084000CF92DF92EF92FF920F931F93CF93DF939C
:10085000EC01F62E642F8C810E9409028D818F3F5E
:1008600019F060E00E9409020F2D10E08F8584FFCF
:1008700025C06E0187E0C80ED11CF12CE12CB80117
:100880000E2C02C0759567950A94E2F76170F60127
:1008900081916F010E940902FFEFEF1AFF0A88E0C1
:1008A000E816F10461F7CE01DF91CF911F910F910E
:1008B000FF90EF90DF90CF900C94DD03B80184E0BF
:1008C000759567958A95E1F7CE010E94F3036F2D28
:1008D000CE01DF91CF911F910F91FF90EF90DF90AC
:1008E000CF900C94F30340E0682F8FE592E00C94D6
:1008F000200481E00E9473048BE39FE10197F1F7EC
:100900000895CF93DF93823029F490916E0298601E
:1009100090936E02809372021092730280E480932F
:10092000740280E18093750280E58093760261E035
:10093000809163020E946702809164028F3F19F0E8
:1009400061E00E94670261E0809165020E94670297
:10095000CFE5D2E09E012F55324080916E0284FD9A
:100960000BC084E090E021962817390744F461E039
:100970008E810E946702EECF88E090E0F4CF8BE397
:100980009DE00197F1F760E0809163020E94090207
:1009900060E0809165020E940902809164028F3FAD
:1009A00019F060E00E94090280916E0284FD34C05B
:1009B00063E08FE592E00E94F303CBE4D6E4CE013E
:1009C0000197F1F763E08FE592E00E94F30321972E
:1009D000F1F763E08FE592E00E94F30383E592E094
:1009E0000197F1F762E08FE592E00E94F3038091B6
:1009F0006E0280620E94730484E080936F028CE038
:100A00000E9473040E94790482E08093700286E061
:100A1000DF91CF910C94730480620E9473048BE485
:100A200096E40197F1F780916E0280620E94730450
:100A300083E592E00197F1F780916E0280620E9457
:100A40007304D5CF90917202691710F06FEF690FA0
:100A5000E62FF0E0E15AFD4F9489890F80680C94ED
:100A6000730441E00E94200481E090E00895FC01BD
:100A700080819181009711F00C94560D0895EF92AA
:100A8000FF920F931F93CF93DF93EC017B018A01B9
:100A900088819981009729F02A813B8124173507A5
:100AA00088F4B8016F5F7F4F0E94DF0D009791F0CF
:100AB000998388831B830A832C813D81232B11F426
:100AC000FC0110821D830C83B701888199810E94EB
:100AD000A50E0CC088819981009711F00E94560DD7
:100AE000198218821D821C821B821A82CE01DF911C
:100AF000CF911F910F91FF90EF9008951F920F9249
:100B00000FB60F9211242F933F934F935F936F93E0
:100B10007F938F939F93AF93BF93EF93FF938091B6
:100B2000AD019091AE01A091AF01B091B001892BC0
:100B30008A2B8B2BD1F19091A801E091A901F09122
:100B4000AA018081892780838091AD019091AE01B7
:100B5000A091AF01B091B001181619061A061B0634
:100B60009CF48091AD019091AE01A091AF01B09144
:100B7000B0010197A109B1098093AD019093AE0135
:100B8000A093AF01B093B001FF91EF91BF91AF91EE
:100B90009F918F917F916F915F914F913F912F9195
:100BA0000F900FBE0F901F90189580910C010E941E
:100BB0003B02EACF1F920F920FB60F9211242F9390
:100BC0003F938F939F93AF93BF938091C501909173
:100BD000C601A091C701B091C8013091A20123E0E4
:100BE000230F2D3758F50196A11DB11D2093A201A9
:100BF0008093C5019093C601A093C701B093C8012B
:100C00008091A3019091A401A091A501B091A601AA
:100C10000196A11DB11D8093A3019093A401A093FF
:100C2000A501B093A601BF91AF919F918F913F9184
:100C30002F910F900FBE0F901F90189526E8230F4D
:100C40000296A11DB11DD2CF1F920F920FB60F9227
:100C500011242F933F934F935F936F937F938F93C1
:100C60009F93AF93BF93CF93DF93EF93FF938091C5
:100C7000A101C091A001D0E087FF24C0109285009F
:100C8000109284008091A1018F5F8093A1018091D7
:100C9000A101082E000C990B8C179D0724F480915C
:100CA000A1018C30C4F1809184009091850004965C
:100CB00080349C4908F47AC080918400909185002A
:100CC000049676C08091A101082E000C990B8C1718
:100CD0009D07C4F6E091A1018E2FEE0F990BFC0148
:100CE000EE0FFF1FE80FF91FE85CFD4F808186FFC4
:100CF000C9CFE091A1018E2FEE0F990BFC01EE0FF1
:100D0000FF1FE80FF91FE85CFD4F808160E08F73E3
:100D10000E940902B7CF2091840030918500E091B4
:100D2000A1018E2FEE0F990BFC01EE0FFF1FE80FB4
:100D3000F91FE85CFD4F81819281820F931F909390
:100D4000890080938800E091A1018E2FEE0F990B0E
:100D5000FC01EE0FFF1FE80FF91FE85CFD4F8081DB
:100D600086FF11C0E091A1018E2FEE0F990BFC01BF
:100D7000EE0FFF1FE80FF91FE85CFD4F808161E077
:100D80008F730E940902FF91EF91DF91CF91BF9184
:100D9000AF919F918F917F916F915F914F913F9113
:100DA0002F910F900FBE0F901F90189580E49CE933
:100DB00090938900809388008FEF8093A101E3CF07
:100DC000CF93DF93CDB7DEB7A2970FB6F894DEBF0F
:100DD0000FBECDBF789484B5826084BD84B5816038
:100DE00084BD85B5826085BD85B5816085BD8091F6
:100DF0006E00816080936E0010928100809181006E
:100E00008260809381008091810081608093810065
:100E1000809180008160809380008091B100846027
:100E20008093B1008091B00081608093B000809188
:100E30007A00846080937A0080917A008260809347
:100E40007A0080917A00816080937A0080917A00A4
:100E5000806880937A001092C10089E090E00E943F
:100E6000130361E082E10E94670261E08DE00E946D
:100E7000670261E08AE00E94670282E00E948104CA
:100E800060E081E00E94220587E391E00E94D003A8
:100E900061E081E00E94220585E491E00E94D00398
:100EA00060ED77E080E090E00E94CC020E9479043F
:100EB0000E94610360ED77E080E090E00E94CC0248
:100EC000812C912C540183943E0129E1620E711C06
:100ED0006E013FE1C30ED11C0E94790460E081E005
:100EE0000E9422058DE491E00E94D00364E670E048
:100EF00080E090E00E94CC0281E0809335028FB7C1
:100F0000F8944091C5015091C6016091C70170915C
:100F1000C8018FBF8091250290912602A0912702DF
:100F2000B0912802481B590B6A0B7B0B8091310250
:100F300090913202B0E0A0E084179507A607B707AA
:100F400008F015C110E080912F02181760F4E091AD
:100F50002B02F0912C02E10FF11D62E080810E94D2
:100F600067021F5FF0CF312C80913002381608F0F5
:100F700064C0E32CF12CE0912D02F0912E02EE0DD5
:100F8000FF1D61E080810E946702E0912D02F091D7
:100F90002E02EE0DFF1D60E080810E940902D50146
:100FA000C401032C04C0880F991FAA1FBB1F0A94F9
:100FB000D2F79AA389A32C0140945094212C8091BC
:100FC0002F02281618F5022D10E0E0912B02F09167
:100FD0002C02E00FF11F80810E94DD010C5F1F4F8A
:100FE000000F111FF801E753FE4F892B51F4808148
:100FF000918129A13AA1822B932B91838083239401
:10100000DECF8081918184219521F7CFE0912D025F
:10101000F0912E02EE0DFF1D61E080810E94090219
:1010200080912D0290912E02E80EF91E60E0F701EA
:1010300080810E946702339497CF09EC11E085E02C
:1010400092E07801F701278D30A1232B31F4148E23
:101050002FEF3FEF368F258F11A236E0E30EF11C04
:101060008E159F0579F7512C80912F02581608F0A4
:1010700053C0412C252C312C220C331CC1018F5222
:101080009E4F1C0120913002421608F043C0F1012E
:1010900060817181042C02C0769567950A94E2F70D
:1010A000529E90011124240D311DE9ECF1E080E005
:1010B000458D568D2417350709F400C38F5F36968A
:1010C0008A30B1F760FF24C0E9ECF1E090E080E005
:1010D000448D411118C0E0912902F0912A02E20FDB
:1010E000F31F408156E0589FF001599FF00D1124E5
:1010F000E753FE4F448F368F258F10A2178E61E085
:101100000E94160105C0019636968A30910501F7B6
:101110004394B8CF5394A8CF80E0F80191A19111E6
:10112000892F0A5F1F4F0E151F05B9F79FB7F89457
:101130004091C5015091C6016091C7017091C801ED
:101140009FBF40932502509326026093270270931D
:101150002802882361F08091EA01882341F0809180
:10116000E8019091E9015090E501019719F0109282
:101170003502512C8E010F5F1F4F7801F80111824B
:101180001082138212821582148250E040E06EE9D0
:1011900071E0C8010E943F050A5F1F4F601671068B
:1011A00069F7511017C0CE0143960E943705CE0152
:1011B0000D960E943705CE0107960E943705C7019C
:1011C0000E94370580E090E0892B09F485CE0E94CB
:1011D000000082CE0E9479048CE591E00E94D00349
:1011E0000091C3011091C40161E0802F0E9422058B
:1011F00041E0652D8FE592E00E94200464EF71E0EC
:1012000080E090E00E94CC02FAE25F1619F023E23F
:10121000521274C01092C4011092C3010E94610363
:101220000E9479048091C3019091C401039709F051
:10123000BACF8091BB019091BC01181619060CF031
:1012400015C18091B9019091BA0101969093BA01AC
:101250008093B9011092BC011092BB011092C4019D
:101260001092C3010E9479048BE691E00E94D003A2
:1012700061E085E00E94220582E691E00E94D003B1
:1012800068EE73E080E090E00E94CC020E9461036F
:101290008091B9019091BA01039709F084CF10921F
:1012A000BA011092B90180910C01823109F430C168
:1012B0008F3F09F456C168EE73E080E090E00E9431
:1012C000CC0282E10E943B0268EE73E080E090E095
:1012D0000E94CC020E94790460E080E00E94220516
:1012E00080E991E00E94D00388E10E94730468ECD9
:1012F00070E080E090E00E94CC02F6CF8091C101C6
:101300009091C2010817190730F4E091BD01F091E6
:10131000BE01309779F51092A701E7EAF1E020814C
:10132000251186C01A8E198E1C8E1B8E1E8E1D8E48
:101330005F8E18A2F60101900020E9F731978F0126
:101340000C191D09B8016F5F7F4F90E080E00E948B
:10135000DF0D009791F09A8F898F1C8F0B8F2D8D49
:101360003E8D232B09F443C01E8F0D8FB6010E94C2
:10137000A50E0DC0E00FF11FD2CF898D9A8D009779
:10138000C9F51A8E198E1E8E1D8E1C8E1B8E009115
:10139000C3011091C401F6E0F09F2001F19F500CB1
:1013A00011244E0C5F1CF20180819181009739F16C
:1013B000698D7A8D6115710501F1428153812D8D01
:1013C0003E8D42175307C8F00E94A50E8D8D9E8D4D
:1013D000F201958384831E8E1D8EC3010E94370502
:1013E0000F5F1F4F1093C4010093C3011BCFFC017B
:1013F0001082BACF0E94560DC4CF0E94560D26E02F
:10140000209FF001219FF00D1124EE0DFF1D898D0D
:101410009A8D918380838B8D9C8D938382838D8D18
:101420009E8D958384831A8E198E1C8E1B8ED3CF2E
:101430000817190730F4E091BD01F091BE01309713
:1014400091F41092A701E7EAF1E08081851509F493
:10145000E9CE8091BB019091BC0101969093BC01B3
:101460008093BB01BDCFE00FF11FEFCF892B09F0B7
:101470000FCF1092C4011092C3010E94790481E73A
:1014800091E00E94D00361E085E00E9422058AE796
:1014900091E00E94D00360ED77E080E090E00E9450
:1014A000CC020E94790483E891E00E94D00360EDB1
:1014B00077E080E090E00E94CC0260E08DE00E9446
:1014C000090261E08AE00E94090268EE73E080E0B0
:1014D00090E00E94CC0283E090E00E9413038AE532
:1014E00090E00E948E0068EE73E080E090E00E9441
:1014F000CC02E0915C028E2F90E0FC01EE0FFF1F0A
:10150000E80FF91FE85CFD4F80818F7B8083C0CEA0
:10151000E2ECF0E0149117FDCECE61E082E10E9492
:101520006702112309F48CC0123009F0A0C0809129
:10153000B100887F85608093B1008BE98093B30010
:101540008FEF9FEFDC018093AD019093AE01A093EC
:10155000AF01B093B0018091700082608093700001
:10156000AACE82E180930C01E2ECF0E014911F3FDF
:1015700009F4A1CE113021F150F0123009F43EC02F
:1015800017FD99CE61E082E10E946702CDCF14BCC5
:1015900015BC84B5826084BD85B5816085BDE0ECF5
:1015A000F0E0E491F0E0EE0FFF1FEC55FF4F859166
:1015B0009491E2EAF0E0E491E093AC0110E0ADCF69
:1015C0001092800010928100809181008860809349
:1015D000810080918100816080938100E0ECF0E0E7
:1015E000E491F0E0EE0FFF1FEC55FF4F85919491D1
:1015F000E2EAF0E0E491E093AB018FCF1092B0000B
:101600001092B1008091B00082608093B000809110
:10161000B10081608093B100E0ECF0E0E491F0E093
:10162000EE0FFF1FEC55FF4F859194919093AA0107
:101630008093A901E2EAF0E0E491E093A8016DCF84
:1016400085B5887F846085BD8DE487BD8FEF9FEF72
:10165000DC018093B5019093B601A093B701B093DC
:10166000B80180916E00826080936E0024CE1130AC
:10167000E9F480918100887F8160809381008FE10F
:101680009EE490938900809388008FEF9FEFDC01A8
:101690008093B1019093B201A093B301B093B401D0
:1016A00080916F00826080936F0005CE123021F030
:1016B000111101CE8FE1C9CF8FE140CF617020CDF4
:1016C000CF93109262021092610281E291E09093B6
:1016D000600280935F028CE080936302CFEFC0933F
:1016E00064028BE08093650285E08093660284E06B
:1016F0008093670283E08093680282E080936902AE
:1017000010926A0210926B0210926C0210926D029B
:1017100010926E0281E00E9481048091A0018C30C1
:1017200008F075C091E0980F9093A00180935C023F
:1017300090E0FC01EE0FFF1FE80FF91FE85CFD4F82
:1017400088EB9BE0928381831092BE011092BD01D1
:101750001092C0011092BF011092C2011092C101FB
:1017600044E050E06AE971E08DEB91E00E943F05B2
:101770001092CB011092CF011092CE011092D001A5
:1017800087E191E09093CA018093C901E5EEF1E011
:101790001082148213821582369682E0E132F807B5
:1017A000B9F784E090E090932C0280932B0283E0C1
:1017B00090E090932E0280932D0289E291E0809335
:1017C0002F0281E391E08093300280E091E09093DA
:1017D0002A02809329028AE090E09093320280935B
:1017E000310284EF91E0909334028093330210929F
:1017F00037021092360210922502109226021092A1
:1018000027021092280210923502CF910895C093BA
:101810005C029ACF8DEB91E00C943705052E97FB77
:101820001EF400940E94250C57FD07D00E94770CEF
:1018300007FC03D04EF40C94250C50954095309540
:1018400021953F4F4F4F5F4F08959095809570952C
:1018500061957F4F8F4F9F4F08950E94990CA59FD0
:10186000900DB49F900DA49F800D911D112408959B
:10187000B7FF0C942D0C0E942D0C821B930B089526
:101880002F923F924F925F926F927F928F929F9290
:10189000AF92BF92CF92DF92EF92FF920F931F937E
:1018A000CF93DF93CDB7DEB7CA1BDB0B0FB6F8942F
:1018B000DEBF0FBECDBF09942A88398848885F846F
:1018C0006E847D848C849B84AA84B984C884DF80E0
:1018D000EE80FD800C811B81AA81B981CE0FD11DC4
:1018E0000FB6F894DEBF0FBECDBFED010895A1E2A3
:1018F0001A2EAA1BBB1BFD010DC0AA1FBB1FEE1F8A
:10190000FF1FA217B307E407F50720F0A21BB30BD4
:10191000E40BF50B661F771F881F991F1A9469F750
:1019200060957095809590959B01AC01BD01CF01AC
:101930000895A29FB001B39FC001A39F700D811DA8
:101940001124911DB29F700D811D1124911D0895C8
:10195000991B79E004C0991F961708F0961B881F01
:101960007A95C9F780950895EE0FFF1F0590F491C1
:10197000E02D09940F931F93CF93DF93823091054D
:1019800010F482E090E0E0917902F0917A0230E088
:1019900020E0B0E0A0E0309799F42115310509F47A
:1019A0004AC0281B390B24303105D8F58A819B8128
:1019B0006115710589F1FB0193838283FE0111C0DA
:1019C000408151810281138148175907E0F048177F
:1019D000590799F4109761F012960C931297139689
:1019E0001C933296CF01DF91CF911F910F910895F3
:1019F0000093790210937A02F4CF2115310551F04A
:101A00004217530738F0A901DB019A01BD01DF013C
:101A1000F801C1CFEF01F9CF90937A028093790258
:101A2000CDCFFE01E20FF31F819391932250310934
:101A300039832883D7CF2091770230917802232BE6
:101A400041F420910F0130911001309378022093DE
:101A5000770220910D0130910E012115310541F4DD
:101A60002DB73EB74091110150911201241B350B47
:101A7000E0917702F0917802E217F307A0F42E1BB1
:101A80003F0B2817390778F0AC014E5F5F4F2417E2
:101A9000350748F04E0F5F1F50937802409377024E
:101AA000819391939FCFF0E0E0E09CCFCF93DF93C1
:101AB0000097E9F0FC01329713821282A09179021B
:101AC000B0917A02ED0130E020E01097A1F420817E
:101AD0003181820F931F209177023091780228176D
:101AE000390709F061C0F0937802E0937702DF9143
:101AF000CF910895EA01CE17DF07E8F54A815B81AF
:101B00009E0141155105B1F7E901FB83EA83499133
:101B10005991C40FD51FEC17FD0761F480819181A5
:101B20000296840F951FE9019983888382819381AE
:101B30009B838A83F0E0E0E012968D919C9113974D
:101B40000097B9F52D913C911197CD010296820F26
:101B5000931F20917702309178022817390739F6C0
:101B6000309751F510927A0210927902B093780270
:101B7000A0937702BCCFD383C28340815181840F6D
:101B8000951FC817D90761F44E5F5F4F888199810F
:101B9000480F591F518340838A819B81938382839D
:101BA0002115310509F0B0CFF0937A02E093790264
:101BB0009ECFFD01DC01C0CF13821282D7CFB0E0EF
:101BC000A0E0E5EEFDE00C94420C8C01009751F48E
:101BD000CB010E94BA0C8C01C801CDB7DEB7E0E1A1
:101BE0000C945E0CFC01E60FF71F9C01225031099A
:101BF000E217F30708F49DC0D901CD91DC9111974C
:101C0000C617D70798F0C530D10530F3CE01049739
:101C10008617970708F3C61BD70B2297C193D1935A
:101C20006D937C93CF010E94560DD6CF5B01AC1A09
:101C3000BD0A4C018C0E9D1EA0917902B0917A02D2
:101C4000512C412CF12CE12C109731F58091770229
:101C5000909178028815990509F05CC046165706E0
:101C600008F058C080910D0190910E01009741F449
:101C70008DB79EB74091110150911201841B950BB5
:101C8000E817F90708F055C0F0937802E09377025F
:101C9000F90171836083A0CF8D919C911197129669
:101CA0006C90129713967C901397A815B90559F567
:101CB0006C0142E0C40ED11CCA14DB0420F1AC015B
:101CC0004A195B09DA011296159780F062827382D5
:101CD00051834083D9016D937C93E114F10471F039
:101CE000D7011396FC93EE93129776CF22968C0F22
:101CF0009D1FF90191838083F301EFCFF0937A0266
:101D0000E093790269CF4816590608F42C017D0149
:101D1000D3019ACFCB010E94BA0C7C01009749F005
:101D2000AE01B8010E949C0EC8010E94560D8701A9
:101D300053CF10E000E050CFFB01DC0102C0019066
:101D40000D9241505040D8F70895FB01DC010190FD
:101D50000D920020E1F7089510E0C3E6D0E004C042
:101D6000FE010E94B40C2196C436D107C9F7F8943D
:021D7000FFCFA3
:101D72003132333435363738392A3023FF00007B8D
:101D820002800000000000A30237020602000000E9
:101D92000031058701FE0286010E000F00100011BE
:101DA20000060007000800446F6F72204C6F636BDF
:101DB200205379730057656C636F6D6500456E74CF
:101DC20065722050617373776F726400456E74653B
:101DD200722050617373636F64650057726F6E6730
:101DE2000070617373636F6465004163636570744F
:101DF200656400446F6F72204F70656E696E670094
:101E02005448414E4B20594F550032343331000073
:00000001FF
